:100000000C9435000C945D000C945D000C945D0024
:100010000C945D000C945D000C945D000C945D00EC
:100020000C945D000C945D000C945D000C945D00DC
:100030000C945D000C945D000C945D000C945D00CC
:100040000C9448020C945D000C9416020C94F00180
:100050000C945D000C945D000C945D000C945D00AC
:100060000C945D000C945D00790311241FBECFEF4A
:10007000D8E0DEBFCDBF11E0A0E0B1E0EAEAF7E0F2
:1000800002C005900D92A033B107D9F721E0A0E39B
:10009000B1E001C01D92AA3DB207E1F710E0C5E34F
:1000A000D0E004C02197FE010E94C803C433D107E9
:1000B000C9F70E9492020C94D3030C940000CF92D3
:1000C000DF92EF92FF920F931F93CF93DF936C0118
:1000D0007A018B01C0E0D0E0CE15DF0589F0D801B0
:1000E0006D918D01D601ED91FC910190F081E02D93
:1000F000C6010995892B11F47E0102C02196ECCF2F
:10010000C701DF91CF911F910F91FF90EF90DF908A
:10011000CF900895089580E090E00895FC01538DFC
:10012000448D252F30E0842F90E0821B930B5417D1
:1001300010F0CF96089501970895FC01918D828D5E
:10014000981761F0828DDF01A80FB11D5D968C912B
:10015000928D9F5F9F73928F90E008958FEF9FEF36
:100160000895FC01918D828D981731F0828DE80FF2
:10017000F11D858D90E008958FEF9FEF0895FC01AC
:10018000918D228D892F90E0805C9F4F821B910979
:100190008F73992708958DE391E00E94BF0021E0BD
:1001A000892B09F420E0822F0895FC01848DDF0162
:1001B000A80FB11DA35ABF4F2C91848D90E00196DA
:1001C0008F739927848FA689B7892C93A089B189C9
:1001D0008C9180648C93938D848D981306C00288D3
:1001E000F389E02D80818F7D80830895EF92FF92C7
:1001F0000F931F93CF93DF93EC0181E0888F9B8D4A
:100200008C8D981305C0E889F989808185FD24C00B
:10021000F62E0B8D10E00F5F1F4F0F731127E02E8E
:100220008C8DE8120CC00FB607FCFACFE889F9896B
:10023000808185FFF5CFCE010E94D500F1CF8B8D57
:10024000FE01E80FF11DE35AFF4FF0820B8FEA89A0
:10025000FB898081806207C0EE89FF896083E8891D
:10026000F98980818064808381E090E0DF91CF9183
:100270001F910F91FF90EF900895CF93DF93EC01C2
:10028000888D8823C9F0EA89FB89808185FD05C0B6
:10029000A889B9898C9186FD0FC00FB607FCF5CFF0
:1002A000808185FFF2CFA889B9898C9185FFEDCF38
:1002B000CE010E94D500E7CFDF91CF91089580E075
:1002C00090E0892B29F00E94CB0081110C94000052
:1002D0000895009769F0FC0101900020E9F731973B
:1002E000AF01481B590BBC018DE391E00C945F00FA
:1002F00080E090E008958F929F92AF92BF920F930B
:100300001F93CF93DF93CDB7DEB7A1970FB6F894C5
:10031000DEBF0FBECDBF19A2423008F44AE08E0105
:100320000F5D1F4F842E912CA12CB12CA50194019F
:100330000E94A603E62FB901CA0101501109EA3053
:1003400014F4E05D01C0E95CD801EC93232B242B6D
:10035000252B61F7C8010E946901A1960FB6F89498
:10036000DEBF0FBECDBFDF91CF911F910F91BF9028
:10037000AF909F908F900895CF92DF92EF92FF926F
:10038000CF93DF9397FF21C06B017C01E0913D018A
:10039000F0913E010190F081E02D6DE28DE391E05E
:1003A0000995EC0166277727CB016C197D098E0929
:1003B0009F094AE00E947B018C0F9D1FDF91CF9126
:1003C000FF90EF90DF90CF9008954AE0DF91CF91BA
:1003D000FF90EF90DF90CF900C947B010E94CE03B2
:1003E0001F920F920FB60F9211242F933F934F93AA
:1003F0005F936F937F938F939F93AF93BF93EF938D
:10040000FF938DE391E00E94D500FF91EF91BF91A2
:10041000AF919F918F917F916F915F914F913F919C
:100420002F910F900FBE0F901F9018951F920F9253
:100430000FB60F9211242F938F939F93EF93FF93F7
:10044000E0914D01F0914E018081E0915301F091D6
:10045000540182FD12C09081809156018F5F8F738D
:1004600020915701821751F0E0915601F0E0E35CD2
:10047000FE4F958F8093560101C08081FF91EF91CF
:100480009F918F912F910F900FBE0F901F901895F5
:100490001F920F920FB60F9211242F933F938F93B9
:1004A0009F93AF93BF938091350190913601A091B6
:1004B0003701B09138013091340123E0230F2D37FB
:1004C00020F40196A11DB11D05C026E8230F029658
:1004D000A11DB11D20933401809335019093360105
:1004E000A0933701B0933801809130019091310190
:1004F000A0913201B09133010196A11DB11D8093ED
:10050000300190933101A0933201B0933301BF9138
:10051000AF919F918F913F912F910F900FBE0F90B0
:100520001F901895789484B5826084BD84B58160ED
:1005300084BD85B5826085BD85B5816085BD8091AE
:100540006E00816080936E00109281008091810026
:10055000826080938100809181008160809381001E
:10056000809180008160809380008091B1008460E0
:100570008093B1008091B00081608093B000809141
:100580007A00846080937A0080917A008260809300
:100590007A0080917A00816080937A0080917A005D
:1005A000806880937A001092C100E0914D01F09133
:1005B0004E0182E08083E0914901F0914A0110826E
:1005C000E0914B01F0914C0180E180831092550144
:1005D000E0915101F091520186E08083E0914F015A
:1005E000F0915001808180618083E0914F01F09112
:1005F0005001808188608083E0914F01F09150012B
:10060000808180688083E0914F01F091500180816A
:100610008F7D808382E191E00E94690160913901C0
:1006200070913A0180913B0190913C018B019C01BA
:100630000F5F1F4F2F4F3F4F0093390110933A0127
:1006400020933B0130933C010E94BC0185E191E085
:100650000E9469012FB7F8946091350170913601BD
:1006600080913701909138012FBF4AE00E947B01B1
:100670008AE191E00E94690181E291E00E946901B2
:1006800084E291E00E9469016091390170913A0120
:1006900080913B0190913C018B019C010F5F1F4FAA
:1006A0002F4F3F4F0093390110933A0120933B01A4
:1006B00030933C010E94BC0188E291E00E946901F4
:1006C0002FB7F89460913501709136018091370110
:1006D000909138012FBF4AE00E947B018CE291E0AB
:1006E0000E94690181E291E00E9469010E945F011C
:1006F00091CFEDE3F1E01382128288EE93E0A0E067
:10070000B0E084839583A683B78384E091E09183EE
:10071000808385EC90E09587848784EC90E09787D0
:10072000868780EC90E0918B808B81EC90E0938BBE
:10073000828B82EC90E0958B848B86EC90E0978B9B
:10074000868B118E128E138E148E0895A1E21A2EAE
:10075000AA1BBB1BFD010DC0AA1FBB1FEE1FFF1F65
:10076000A217B307E407F50720F0A21BB30BE40BB5
:10077000F50B661F771F881F991F1A9469F76095FC
:100780007095809590959B01AC01BD01CF010895B6
:10079000EE0FFF1F0590F491E02D099481E090E0A9
:0A07A000F8940C94D303F894FFCFF3
:1007AA0000000000F6005F008E003D01BF009D00C2
:1007BA00B100543B003B38343B003B3130303730DA
:1007CA00000D0A00333220002030200020300000C3
:00000001FF
