:100000000C9462000C946D040C9446040C948A00C9
:100010000C948A000C948A000C9494040C948A002A
:100020000C948A000C948A000C948A000C948A0028
:100030000C948A000C948A000C948A000C948A0018
:100040000C94FC030C948A000C94CA030C94A40333
:100050000C948A000C948A000C948A000C948A00F8
:100060000C948A000C948A000000000023002600F3
:10007000290000000008000201000003040700003E
:1000800000000000000000000000250028002B00F8
:1000900000000000240027002A00040404040404D3
:1000A0000404020202020202030303030303010227
:1000B00004081020408001020408102001020408F6
:1000C0001020070611241FBECFEFD8E0DEBFCDBF42
:1000D00011E0A0E0B1E0E6ECFCE002C005900D927A
:1000E000AE34B107D9F722E0AEE4B1E001C01D9211
:1000F000AC31B207E1F710E0C2E6D0E004C02197CE
:10010000FE010E945606C136D107C9F70E94AB0412
:100110000C9461060C940000CF93DF9390E0FC01F7
:10012000E255FF4F2491FC01E656FF4F849188234E
:10013000C1F090E0880F991FFC01E057FF4FC59177
:10014000D491FC01EA57FF4FA591B4919FB7F89461
:100150008881E22FE0958E2388838C91E823EC93AD
:100160009FBFDF91CF910895E0917F01F0918001D1
:100170000190F081E02D682F8FE791E00994CF92F4
:10018000DF92EF92FF920F931F93CF93DF936C0157
:100190007A018B01C0E0D0E0CE15DF0589F0D801EF
:1001A0006D918D01D601ED91FC910190F081E02DD2
:1001B000C6010995892B11F47E0102C02196ECCF6E
:1001C000C701DF91CF911F910F91FF90EF90DF90CA
:1001D000CF900895089580E090E00895FC01538D3C
:1001E000448D252F30E0842F90E0821B930B541711
:1001F00010F0CF96089501970895FC01918D828D9E
:10020000981761F0828DDF01A80FB11D5D968C916A
:10021000928D9F5F9F73928F90E008958FEF9FEF75
:100220000895FC01918D828D981731F0828DE80F31
:10023000F11D858D90E008958FEF9FEF0895FC01EB
:10024000918D228D892F90E0805C9F4F821B9109B8
:100250008F73992708958FE791E00E941F0121E095
:10026000892B09F420E0822F0895FC01848DDF01A1
:10027000A80FB11DA35ABF4F2C91848D90E0019619
:100280008F739927848FA689B7892C93A089B18908
:100290008C9180648C93938D848D981306C0028812
:1002A000F389E02D80818F7D80830895EF92FF9206
:1002B0000F931F93CF93DF93EC0181E0888F9B8D89
:1002C0008C8D981305C0E889F989808185FD24C04B
:1002D000F62E0B8D10E00F5F1F4F0F731127E02ECE
:1002E0008C8DE8120CC00FB607FCFACFE889F989AB
:1002F000808185FFF5CFCE010E943501F1CF8B8D36
:10030000FE01E80FF11DE35AFF4FF0820B8FEA89DF
:10031000FB898081806207C0EE89FF896083E8895C
:10032000F98980818064808381E090E0DF91CF91C2
:100330001F910F91FF90EF900895CF93DF93EC0101
:10034000888D8823C9F0EA89FB89808185FD05C0F5
:10035000A889B9898C9186FD0FC00FB607FCF5CF2F
:10036000808185FFF2CFA889B9898C9185FFEDCF77
:10037000CE010E943501E7CFDF91CF91089580E053
:1003800090E0892B29F00E942B0181110C94000030
:10039000089590E0FC01EE58FF4F2491FC01E255D6
:1003A000FF4F3491FC01E656FF4FE491EE23B9F183
:1003B000222339F1233091F038F42130A9F0223092
:1003C00001F584B58F7D12C0273091F02830A1F05F
:1003D0002430B9F4809180008F7D03C0809180002B
:1003E0008F77809380000DC084B58F7784BD09C05E
:1003F0008091B0008F7703C08091B0008F7D809393
:10040000B000F0E0EE0FFF1FE859FF4FA591B49147
:10041000EC913E2381E090E021F480E0089580E0BB
:1004200090E008952FB7F8946091530170915401B2
:1004300080915501909156012FBF089508950E9413
:100440001202EFE5F1E064837583868397838281EE
:10045000938101969383828308950E941202EFE6AE
:10046000F1E064837583868397838281938101960B
:10047000938382830895009769F0FC010190002026
:10048000E9F73197AF01481B590BBC018FE791E0A9
:100490000C94BF0080E090E008958F929F92AF92FD
:1004A000BF920F931F93CF93DF93CDB7DEB7A19782
:1004B0000FB6F894DEBF0FBECDBF19A2423008F4CC
:1004C0004AE08E010F5D1F4F842E912CA12CB12C80
:1004D000A50194010E943406E62FB901CA0101501A
:1004E0001109EA3014F4E05D01C0E95CD801EC9335
:1004F000232B242B252B61F7C8010E943B02A196D8
:100500000FB6F894DEBF0FBECDBFDF91CF911F9124
:100510000F91BF90AF909F908F900895CF92DF92F0
:10052000EF92FF92CF93DF936C01990FEE08FF08D3
:10053000F7FE17C08DE20E94B400EC016627772712
:10054000CB016C197D098E099F094AE00E944D027A
:100550008C0F9D1FDF91CF91FF90EF90DF90CF9098
:1005600008954AE0C701B601DF91CF91FF90EF9067
:10057000DF90CF900C944D020F931F93CF93DF9396
:10058000EC01862F0E94B4008BE30E94B400288106
:10059000398181E090E02130310511F080E090E078
:1005A0000E948E028BE30E94B4008A819B810E948C
:1005B0008E028BE30E94B4000E9412024AE00E9465
:1005C0004D028BE30E94B4000E9412020C811D8137
:1005D0002E813F81601B710B820B930B4AE00E94BE
:1005E0004D0286E191E0DF91CF911F910F910C9424
:1005F0003B028F929F92AF92BF92CF92DF92FF9277
:100600000F931F93CF93DF93CDB7DEB728970FB625
:10061000F894DEBF0FBECDBF8C016B01F42E822F8C
:10062000F89498E0FB01DE01119601900D929A95E5
:10063000E1F778940E94C9019A8389830E9412028B
:100640008D809E80AF80B88449815A81F8012081D5
:100650003181DC01CB0188199909AA09BB090B97E3
:10066000A105B10508F43DC042175307D1F1F89434
:10067000F6011382128278940E941202F80184809B
:100680009580A680B780DC01CB0188199909AA0959
:10069000BB098E359140A105B10540F481E20E946D
:1006A000B4006F2DC8010E94BC023AC06F2DC80172
:1006B0000E94BC0223E5F2120AC080915901909178
:1006C0005A01019690935A018093590121C080915B
:1006D00057019091580101969093580180935701CA
:1006E00017C02B813C81F80182819381281739073B
:1006F000B9F08AE20E94B40060E26F0DCE0101966B
:100700000E94BC028B819C81F8019383828308C084
:1007100088E0FE013196D80101900D928A95E1F7AB
:1007200028960FB6F894DEBF0FBECDBFDF91CF91F4
:100730001F910F91FF90DF90CF90BF90AF909F904F
:100740008F9008950E945C061F920F920FB60F9231
:1007500011242F933F934F935F936F937F938F93C6
:100760009F93AF93BF93EF93FF938FE791E00E9426
:100770003501FF91EF91BF91AF919F918F917F9143
:100780006F915F914F913F912F910F900FBE0F90FE
:100790001F9018951F920F920FB60F9211242F934E
:1007A0008F939F93EF93FF93E0918F01F0919001CE
:1007B0008081E0919501F091960182FD12C09081B7
:1007C000809198018F5F8F7320919901821751F06A
:1007D000E0919801F0E0E158FE4F958F80939801E9
:1007E00001C08081FF91EF919F918F912F910F9088
:1007F0000FBE0F901F9018951F920F920FB60F9279
:1008000011242F933F938F939F93AF93BF93809126
:10081000530190915401A0915501B091560130912E
:10082000520123E0230F2D3720F40196A11DB11DA5
:1008300005C026E8230F0296A11DB11D2093520189
:100840008093530190935401A0935501B0935601A6
:1008500080914E0190914F01A0915001B0915101B2
:100860000196A11DB11D80934E0190934F01A0935D
:100870005001B0935101BF91AF919F918F913F91E2
:100880002F910F900FBE0F901F9018951F920F92EF
:100890000FB60F9211242F933F934F935F936F9353
:1008A0007F938F939F93AF93BF93EF93FF93E091C9
:1008B0000201F09103010995FF91EF91BF91AF9172
:1008C0009F918F917F916F915F914F913F912F9168
:1008D0000F900FBE0F901F9018951F920F920FB69A
:1008E0000F9211242F933F934F935F936F937F93B6
:1008F0008F939F93AF93BF93EF93FF93E09100018A
:10090000F09101010995FF91EF91BF91AF919F91F6
:100910008F917F916F915F914F913F912F910F90A8
:100920000FBE0F901F9018951F920F920FB60F9247
:1009300011248F930FB6F894A89580916000886178
:1009400080936000109260000FBE8F910F900FBED9
:100950000F901F901895789484B5826084BD84B5FB
:10096000816084BD85B5826085BD85B5816085BDAA
:1009700080916E00816080936E0010928100809162
:1009800081008260809381008091810081608093EA
:100990008100809180008160809380008091B1000F
:1009A00084608093B1008091B00081608093B0003A
:1009B00080917A00846080937A0080917A008260CE
:1009C00080937A0080917A00816080937A00809190
:1009D0007A00806880937A001092C100E0918F01C4
:1009E000F091900182E08083E0918B01F0918C0185
:1009F0001082E0918D01F0918E0180E18083109250
:100A00009701E0919301F091940186E08083E09159
:100A10009101F0919201808180618083E091910148
:100A2000F0919201808188608083E0919101F09142
:100A30009201808180688083E0919101F091920120
:100A400080818F7D808383E00E948C0082E00E9401
:100A50008C000E9412026093730170937401809362
:100A600075019093760183E00E94C9019093700113
:100A700080936F0110927201109271010E94120214
:100A800060936301709364018093650190936601A4
:100A900082E00E94C9019093600180935F011092EF
:100AA00062011092610188E0EFE6F1E0A7E7B1E0B2
:100AB00001900D928A95E1F788E0EFE5F1E0A7E675
:100AC000B1E001900D928A95E1F789E191E00E94F1
:100AD0003B0286E191E00E943B028DE292E090931E
:100AE00003018093020180916900837F8460809379
:100AF0006900E99A8FE192E09093010180930001EF
:100B0000809169008C7F816080936900E89A23E07E
:100B100030E044E56FE671E087E791E00E94F9027A
:100B200022E030E043E56FE571E087E691E00E9466
:100B3000F9020E9412022091590130915A01C0908D
:100B40005B01D0905C01E0905D01F0905E01DC0102
:100B5000CB018C199D09AE09BF0989399A43A105BA
:100B6000B10508F451C081E04091570150915801FE
:100B7000452B09F480E091E02115310509F490E05E
:100B8000982B09F441C0C9010E948E0280E20E94A4
:100B9000B40080915701909158010E948E0280E22A
:100BA0000E94B4000E9412024AE00E944D0280E2BC
:100BB0000E94B4000E94120200915B0110915C013E
:100BC00020915D0130915E01601B710B820B930BD4
:100BD0004AE00E944D0280E20E94B40086E191E06A
:100BE0000E943B02109258011092570110925A0134
:100BF000109259010E94120260935B0170935C0194
:100C000080935D0190935E010E94BF0180CFEFE76A
:100C1000F1E01382128288EE93E0A0E0B0E08483DA
:100C20009583A683B78388E091E09183808385ECE8
:100C300090E09587848784EC90E09787868780ECA6
:100C400090E0918B808B81EC90E0938B828B82EC97
:100C500090E0958B848B86EC90E0978B868B118E41
:100C6000128E138E148E0895A1E21A2EAA1BBB1B9E
:100C7000FD010DC0AA1FBB1FEE1FFF1FA217B30768
:100C8000E407F50720F0A21BB30BE40BF50B661F7E
:100C9000771F881F991F1A9469F760957095809542
:100CA00090959B01AC01BD01CF010895EE0FFF1F90
:100CB0000590F491E02D099481E090E0F8940C9473
:060CC0006106F894FFCF6D
:100CC6001E021E02000000005601BF00EE009D013C
:100CD6001F01FD0011010D0A00532F563B66696E78
:100CE60069736865645F73746174653B4952515FEB
:100CF600436E743B6C6170735F74696D653B7075B0
:0E0D06006C73655F6475726174696F6E0000D6
:00000001FF
